{
  "_format": "hh3-artifact-1",
  "contractName": "UUPSProxy",
  "sourceName": "contracts/UUPSProxy.sol",
  "abi": [
    {
      "inputs": [
        {
          "internalType": "address",
          "name": "implementation",
          "type": "address"
        },
        {
          "internalType": "address",
          "name": "admin",
          "type": "address"
        },
        {
          "internalType": "bytes",
          "name": "initData",
          "type": "bytes"
        }
      ],
      "stateMutability": "nonpayable",
      "type": "constructor"
    },
    {
      "stateMutability": "payable",
      "type": "fallback"
    },
    {
      "inputs": [],
      "name": "getAdmin",
      "outputs": [
        {
          "internalType": "address",
          "name": "",
          "type": "address"
        }
      ],
      "stateMutability": "view",
      "type": "function"
    },
    {
      "inputs": [],
      "name": "getImplementation",
      "outputs": [
        {
          "internalType": "address",
          "name": "",
          "type": "address"
        }
      ],
      "stateMutability": "view",
      "type": "function"
    },
    {
      "inputs": [
        {
          "internalType": "address",
          "name": "newImplementation",
          "type": "address"
        }
      ],
      "name": "upgradeTo",
      "outputs": [],
      "stateMutability": "nonpayable",
      "type": "function"
    },
    {
      "stateMutability": "payable",
      "type": "receive"
    }
  ],
  "bytecode": "0x608060405234801561000f575f5ffd5b506040516105fa3803806105fa83398101604081905261002e91610175565b7f360894a13ba1a3210667c828492db98dca3e2076cc3735a920a3ca505d382bbc8390557fb53127684a568b3173ae13b9f8a6016e243e63b6e8ee1178d6a717850b5d610382815581511561013d575f5f856001600160a01b0316846040516100979190610246565b5f60405180830381855af49150503d805f81146100cf576040519150601f19603f3d011682016040523d82523d5f602084013e6100d4565b606091505b50915091508161013a578051156100ee5780518082602001fd5b60405162461bcd60e51b815260206004820152601560248201527f496e697469616c697a6174696f6e206661696c65640000000000000000000000604482015260640160405180910390fd5b50505b5050505061025c565b80516001600160a01b038116811461015c575f5ffd5b919050565b634e487b7160e01b5f52604160045260245ffd5b5f5f5f60608486031215610187575f5ffd5b61019084610146565b925061019e60208501610146565b60408501519092506001600160401b038111156101b9575f5ffd5b8401601f810186136101c9575f5ffd5b80516001600160401b038111156101e2576101e2610161565b604051601f8201601f19908116603f011681016001600160401b038111828210171561021057610210610161565b604052818152828201602001881015610227575f5ffd5b8160208401602083015e5f602083830101528093505050509250925092565b5f82518060208501845e5f920191825250919050565b610391806102695f395ff3fe608060405260043610610037575f3560e01c80633659cfe61461008a5780636e9960c3146100a9578063aaf10f42146100d957610074565b36610074575f6100525f51602061033c5f395f51905f525490565b9050365f5f375f5f365f845af43d5f5f3e80801561006e573d5ff35b3d5ffd5b005b5f6100525f51602061033c5f395f51905f525490565b348015610095575f5ffd5b506100726100a43660046102f8565b6100ed565b3480156100b4575f5ffd5b506100bd6102b4565b6040516001600160a01b03909116815260200160405180910390f35b3480156100e4575f5ffd5b506100bd6102e2565b7fb53127684a568b3173ae13b9f8a6016e243e63b6e8ee1178d6a717850b5d6103546001600160a01b0316336001600160a01b03161461016d5760405162461bcd60e51b81526020600482015260166024820152754f6e6c792061646d696e2063616e207570677261646560501b60448201526064015b60405180910390fd5b6001600160a01b0381166101bc5760405162461bcd60e51b815260206004820152601660248201527524b73b30b634b21034b6b83632b6b2b73a30ba34b7b760511b6044820152606401610164565b5f51602061033c5f395f51905f528181556040516001600160a01b038316602482018190525f9182919060440160408051601f198184030181529181526020820180516001600160e01b0316631b2ce7f360e11b1790525161021e9190610325565b5f60405180830381855af49150503d805f8114610256576040519150601f19603f3d011682016040523d82523d5f602084013e61025b565b606091505b5091509150816102ae578051156102755780518082602001fd5b60405162461bcd60e51b815260206004820152600e60248201526d155c19dc9859194819985a5b195960921b6044820152606401610164565b50505050565b5f6102dd7fb53127684a568b3173ae13b9f8a6016e243e63b6e8ee1178d6a717850b5d61035490565b905090565b5f6102dd5f51602061033c5f395f51905f525490565b5f60208284031215610308575f5ffd5b81356001600160a01b038116811461031e575f5ffd5b9392505050565b5f82518060208501845e5f92019182525091905056fe360894a13ba1a3210667c828492db98dca3e2076cc3735a920a3ca505d382bbca26469706673582212205ee556b7dddb91e0a9fb4810a09dbaaabbed510f8a6453e50e9c03e6df5b689264736f6c634300081c0033",
  "linkReferences": {},
  "deployedLinkReferences": {},
  "immutableReferences": {},
  "inputSourceName": "project/contracts/UUPSProxy.sol",
  "buildInfoId": "solc-0_8_28-89783c039ae37e0ac1833f8adfdf1356fd06d7eb"
}