{
  "_format": "hh3-artifact-1",
  "contractName": "VotingV1",
  "sourceName": "contracts/VotingV1.sol",
  "abi": [
    {
      "anonymous": false,
      "inputs": [
        {
          "indexed": false,
          "internalType": "uint256",
          "name": "id",
          "type": "uint256"
        },
        {
          "indexed": false,
          "internalType": "string",
          "name": "description",
          "type": "string"
        },
        {
          "indexed": false,
          "internalType": "uint256",
          "name": "deadline",
          "type": "uint256"
        }
      ],
      "name": "ProposalCreated",
      "type": "event"
    },
    {
      "anonymous": false,
      "inputs": [
        {
          "indexed": false,
          "internalType": "address",
          "name": "newImplementation",
          "type": "address"
        }
      ],
      "name": "Upgraded",
      "type": "event"
    },
    {
      "anonymous": false,
      "inputs": [
        {
          "indexed": false,
          "internalType": "address",
          "name": "voter",
          "type": "address"
        },
        {
          "indexed": false,
          "internalType": "uint256",
          "name": "proposalId",
          "type": "uint256"
        }
      ],
      "name": "Voted",
      "type": "event"
    },
    {
      "inputs": [
        {
          "internalType": "uint256",
          "name": "_proposalId",
          "type": "uint256"
        }
      ],
      "name": "closeVote",
      "outputs": [],
      "stateMutability": "nonpayable",
      "type": "function"
    },
    {
      "inputs": [
        {
          "internalType": "string",
          "name": "_desc",
          "type": "string"
        },
        {
          "internalType": "uint256",
          "name": "_duration",
          "type": "uint256"
        }
      ],
      "name": "createProposal",
      "outputs": [],
      "stateMutability": "nonpayable",
      "type": "function"
    },
    {
      "inputs": [],
      "name": "getAdmin",
      "outputs": [
        {
          "internalType": "address",
          "name": "",
          "type": "address"
        }
      ],
      "stateMutability": "view",
      "type": "function"
    },
    {
      "inputs": [],
      "name": "getImplementation",
      "outputs": [
        {
          "internalType": "address",
          "name": "",
          "type": "address"
        }
      ],
      "stateMutability": "view",
      "type": "function"
    },
    {
      "inputs": [],
      "name": "getProposals",
      "outputs": [
        {
          "components": [
            {
              "internalType": "uint256",
              "name": "id",
              "type": "uint256"
            },
            {
              "internalType": "string",
              "name": "description",
              "type": "string"
            },
            {
              "internalType": "uint256",
              "name": "voteCount",
              "type": "uint256"
            },
            {
              "internalType": "uint256",
              "name": "deadline",
              "type": "uint256"
            },
            {
              "internalType": "bool",
              "name": "closed",
              "type": "bool"
            }
          ],
          "internalType": "struct VotingV1.Proposal[]",
          "name": "",
          "type": "tuple[]"
        }
      ],
      "stateMutability": "view",
      "type": "function"
    },
    {
      "inputs": [
        {
          "internalType": "address",
          "name": "",
          "type": "address"
        },
        {
          "internalType": "uint256",
          "name": "",
          "type": "uint256"
        }
      ],
      "name": "hasVoted",
      "outputs": [
        {
          "internalType": "bool",
          "name": "",
          "type": "bool"
        }
      ],
      "stateMutability": "view",
      "type": "function"
    },
    {
      "inputs": [],
      "name": "initialize",
      "outputs": [],
      "stateMutability": "nonpayable",
      "type": "function"
    },
    {
      "inputs": [],
      "name": "proposalCount",
      "outputs": [
        {
          "internalType": "uint256",
          "name": "",
          "type": "uint256"
        }
      ],
      "stateMutability": "view",
      "type": "function"
    },
    {
      "inputs": [
        {
          "internalType": "uint256",
          "name": "",
          "type": "uint256"
        }
      ],
      "name": "proposals",
      "outputs": [
        {
          "internalType": "uint256",
          "name": "id",
          "type": "uint256"
        },
        {
          "internalType": "string",
          "name": "description",
          "type": "string"
        },
        {
          "internalType": "uint256",
          "name": "voteCount",
          "type": "uint256"
        },
        {
          "internalType": "uint256",
          "name": "deadline",
          "type": "uint256"
        },
        {
          "internalType": "bool",
          "name": "closed",
          "type": "bool"
        }
      ],
      "stateMutability": "view",
      "type": "function"
    },
    {
      "inputs": [
        {
          "internalType": "address",
          "name": "newImplementation",
          "type": "address"
        }
      ],
      "name": "upgradeTo",
      "outputs": [],
      "stateMutability": "nonpayable",
      "type": "function"
    },
    {
      "inputs": [
        {
          "internalType": "uint256",
          "name": "_proposalId",
          "type": "uint256"
        }
      ],
      "name": "vote",
      "outputs": [],
      "stateMutability": "nonpayable",
      "type": "function"
    }
  ],
  "bytecode": "0x6080604052348015600e575f5ffd5b50610c278061001c5f395ff3fe608060405234801561000f575f5ffd5b50600436106100a6575f3560e01c806362564c481161006e57806362564c481461014f5780636e48a035146101645780636e9960c3146101775780638129fc1c1461019c578063aaf10f42146101a4578063da35c664146101b5575f5ffd5b80630121b93f146100aa578063013cf08b146100bf57806335facf78146100ec5780633659cfe6146100ff5780634254582514610112575b5f5ffd5b6100bd6100b83660046107e2565b6101cc565b005b6100d26100cd3660046107e2565b6102f4565b6040516100e3959493929190610827565b60405180910390f35b6100bd6100fa366004610872565b6103ad565b6100bd61010d366004610942565b61048a565b61013f610120366004610962565b600160209081525f928352604080842090915290825290205460ff1681565b60405190151581526020016100e3565b610157610591565b6040516100e3919061098a565b6100bd6101723660046107e2565b610733565b6003546001600160a01b03165b6040516001600160a01b0390911681526020016100e3565b6100bd610791565b6004546001600160a01b0316610184565b6101be60025481565b6040519081526020016100e3565b5f818152602081905260409020600381015442106102215760405162461bcd60e51b815260206004820152600d60248201526c159bdd1a5b99c818db1bdcd959609a1b60448201526064015b60405180910390fd5b335f90815260016020908152604080832085845290915290205460ff161561027b5760405162461bcd60e51b815260206004820152600d60248201526c105b1c9958591e481d9bdd1959609a1b6044820152606401610218565b6001816002015f82825461028f9190610a38565b9091555050335f818152600160208181526040808420878552825292839020805460ff1916909217909155815192835282018490527f4d99b957a2bc29a30ebd96a7be8e68fe50a3c701db28a91436490b7d53870ca491015b60405180910390a15050565b5f602081905290815260409020805460018201805491929161031590610a51565b80601f016020809104026020016040519081016040528092919081815260200182805461034190610a51565b801561038c5780601f106103635761010080835404028352916020019161038c565b820191905f5260205f20905b81548152906001019060200180831161036f57829003601f168201915b50505050600283015460038401546004909401549293909290915060ff1685565b60028054905f6103bc83610a83565b91905055506040518060a0016040528060025481526020018381526020015f815260200182426103ec9190610a38565b81525f60209182018190526002548152808252604090208251815590820151600182019061041a9082610ae7565b506040820151600282810191909155606083015160038301556080909201516004909101805460ff1916911515919091179055547ff5dc0da9afa6d080780a49fd8c680f03d2ddf3c067cd6d0c85360c096644d2d3908361047b8442610a38565b6040516102e893929190610ba2565b6003546001600160a01b031633146104ee5760405162461bcd60e51b815260206004820152602160248201527f4f6e6c792061646d696e2063616e2063616c6c20746869732066756e6374696f6044820152603760f91b6064820152608401610218565b6001600160a01b03811661053d5760405162461bcd60e51b815260206004820152601660248201527524b73b30b634b21034b6b83632b6b2b73a30ba34b7b760511b6044820152606401610218565b600480546001600160a01b0319166001600160a01b0383169081179091556040519081527fbc7cd75a20ee27fd9adebab32041f755214dbc6bffa90cc0225b39da2e5c2d3b9060200160405180910390a150565b60605f60025467ffffffffffffffff8111156105af576105af61085e565b60405190808252806020026020018201604052801561061057816020015b6105fd6040518060a001604052805f8152602001606081526020015f81526020015f81526020015f151581525090565b8152602001906001900390816105cd5790505b50905060015b600254811161072d575f8181526020818152604091829020825160a0810190935280548352600181018054919284019161064f90610a51565b80601f016020809104026020016040519081016040528092919081815260200182805461067b90610a51565b80156106c65780601f1061069d576101008083540402835291602001916106c6565b820191905f5260205f20905b8154815290600101906020018083116106a957829003601f168201915b5050509183525050600282015460208201526003820154604082015260049091015460ff161515606090910152826106ff600184610bca565b8151811061070f5761070f610bdd565b6020026020010181905250808061072590610a83565b915050610616565b50919050565b5f81815260208190526040902060038101544210156107805760405162461bcd60e51b8152602060048201526009602482015268546f6f206561726c7960b81b6044820152606401610218565b600401805460ff1916600117905550565b6003546001600160a01b0316156107e05760405162461bcd60e51b8152602060048201526013602482015272105b1c9958591e481a5b9a5d1a585b1a5e9959606a1b6044820152606401610218565b565b5f602082840312156107f2575f5ffd5b5035919050565b5f81518084528060208401602086015e5f602082860101526020601f19601f83011685010191505092915050565b85815260a060208201525f61083f60a08301876107f9565b6040830195909552506060810192909252151560809091015292915050565b634e487b7160e01b5f52604160045260245ffd5b5f5f60408385031215610883575f5ffd5b823567ffffffffffffffff811115610899575f5ffd5b8301601f810185136108a9575f5ffd5b803567ffffffffffffffff8111156108c3576108c361085e565b604051601f8201601f19908116603f0116810167ffffffffffffffff811182821017156108f2576108f261085e565b604052818152828201602001871015610909575f5ffd5b816020840160208301375f6020928201830152969401359450505050565b80356001600160a01b038116811461093d575f5ffd5b919050565b5f60208284031215610952575f5ffd5b61095b82610927565b9392505050565b5f5f60408385031215610973575f5ffd5b61097c83610927565b946020939093013593505050565b5f602082016020835280845180835260408501915060408160051b8601019250602086015f5b82811015610a1857603f19878603018452815180518652602081015160a060208801526109e060a08801826107f9565b6040838101519089015260608084015190890152608092830151151592909701919091525060209384019391909101906001016109b0565b50929695505050505050565b634e487b7160e01b5f52601160045260245ffd5b80820180821115610a4b57610a4b610a24565b92915050565b600181811c90821680610a6557607f821691505b60208210810361072d57634e487b7160e01b5f52602260045260245ffd5b5f60018201610a9457610a94610a24565b5060010190565b601f821115610ae257805f5260205f20601f840160051c81016020851015610ac05750805b601f840160051c820191505b81811015610adf575f8155600101610acc565b50505b505050565b815167ffffffffffffffff811115610b0157610b0161085e565b610b1581610b0f8454610a51565b84610a9b565b6020601f821160018114610b47575f8315610b305750848201515b5f19600385901b1c1916600184901b178455610adf565b5f84815260208120601f198516915b82811015610b765787850151825560209485019460019092019101610b56565b5084821015610b9357868401515f19600387901b60f8161c191681555b50505050600190811b01905550565b838152606060208201525f610bba60608301856107f9565b9050826040830152949350505050565b81810381811115610a4b57610a4b610a24565b634e487b7160e01b5f52603260045260245ffdfea264697066735822122014e80d609ecb9f6eda9725b68ae436311ceb66950d79c6b136680e503753d3f264736f6c634300081c0033",
  "linkReferences": {},
  "deployedLinkReferences": {},
  "immutableReferences": {},
  "inputSourceName": "project/contracts/VotingV1.sol",
  "buildInfoId": "solc-0_8_28-8236deda4bd340d93faf79f36da17c799cc8bde0"
}