{
  "_format": "hh3-artifact-1",
  "contractName": "VotingV2",
  "sourceName": "contracts/VotingV2.sol",
  "abi": [
    {
      "anonymous": false,
      "inputs": [
        {
          "indexed": false,
          "internalType": "uint256",
          "name": "id",
          "type": "uint256"
        },
        {
          "indexed": false,
          "internalType": "uint256",
          "name": "finalVoteCount",
          "type": "uint256"
        }
      ],
      "name": "ProposalClosed",
      "type": "event"
    },
    {
      "anonymous": false,
      "inputs": [
        {
          "indexed": false,
          "internalType": "uint256",
          "name": "id",
          "type": "uint256"
        },
        {
          "indexed": false,
          "internalType": "string",
          "name": "description",
          "type": "string"
        },
        {
          "indexed": false,
          "internalType": "uint256",
          "name": "deadline",
          "type": "uint256"
        }
      ],
      "name": "ProposalCreated",
      "type": "event"
    },
    {
      "anonymous": false,
      "inputs": [
        {
          "indexed": false,
          "internalType": "address",
          "name": "newImplementation",
          "type": "address"
        }
      ],
      "name": "Upgraded",
      "type": "event"
    },
    {
      "anonymous": false,
      "inputs": [
        {
          "indexed": false,
          "internalType": "address",
          "name": "voter",
          "type": "address"
        },
        {
          "indexed": false,
          "internalType": "uint256",
          "name": "proposalId",
          "type": "uint256"
        }
      ],
      "name": "Voted",
      "type": "event"
    },
    {
      "inputs": [
        {
          "internalType": "uint256",
          "name": "_proposalId",
          "type": "uint256"
        }
      ],
      "name": "closeVote",
      "outputs": [],
      "stateMutability": "nonpayable",
      "type": "function"
    },
    {
      "inputs": [
        {
          "internalType": "string",
          "name": "_desc",
          "type": "string"
        },
        {
          "internalType": "uint256",
          "name": "_duration",
          "type": "uint256"
        }
      ],
      "name": "createProposal",
      "outputs": [],
      "stateMutability": "nonpayable",
      "type": "function"
    },
    {
      "inputs": [],
      "name": "getAdmin",
      "outputs": [
        {
          "internalType": "address",
          "name": "",
          "type": "address"
        }
      ],
      "stateMutability": "view",
      "type": "function"
    },
    {
      "inputs": [],
      "name": "getImplementation",
      "outputs": [
        {
          "internalType": "address",
          "name": "",
          "type": "address"
        }
      ],
      "stateMutability": "view",
      "type": "function"
    },
    {
      "inputs": [],
      "name": "getProposals",
      "outputs": [
        {
          "components": [
            {
              "internalType": "uint256",
              "name": "id",
              "type": "uint256"
            },
            {
              "internalType": "string",
              "name": "description",
              "type": "string"
            },
            {
              "internalType": "uint256",
              "name": "voteCount",
              "type": "uint256"
            },
            {
              "internalType": "uint256",
              "name": "deadline",
              "type": "uint256"
            },
            {
              "internalType": "bool",
              "name": "closed",
              "type": "bool"
            }
          ],
          "internalType": "struct VotingV2.Proposal[]",
          "name": "",
          "type": "tuple[]"
        }
      ],
      "stateMutability": "view",
      "type": "function"
    },
    {
      "inputs": [],
      "name": "getVersion",
      "outputs": [
        {
          "internalType": "uint256",
          "name": "",
          "type": "uint256"
        }
      ],
      "stateMutability": "view",
      "type": "function"
    },
    {
      "inputs": [
        {
          "internalType": "uint256",
          "name": "_proposalId",
          "type": "uint256"
        }
      ],
      "name": "getVoters",
      "outputs": [
        {
          "internalType": "address[]",
          "name": "",
          "type": "address[]"
        }
      ],
      "stateMutability": "view",
      "type": "function"
    },
    {
      "inputs": [
        {
          "internalType": "address",
          "name": "",
          "type": "address"
        },
        {
          "internalType": "uint256",
          "name": "",
          "type": "uint256"
        }
      ],
      "name": "hasVoted",
      "outputs": [
        {
          "internalType": "bool",
          "name": "",
          "type": "bool"
        }
      ],
      "stateMutability": "view",
      "type": "function"
    },
    {
      "inputs": [],
      "name": "initialize",
      "outputs": [],
      "stateMutability": "nonpayable",
      "type": "function"
    },
    {
      "inputs": [],
      "name": "initializeV2",
      "outputs": [],
      "stateMutability": "nonpayable",
      "type": "function"
    },
    {
      "inputs": [],
      "name": "proposalCount",
      "outputs": [
        {
          "internalType": "uint256",
          "name": "",
          "type": "uint256"
        }
      ],
      "stateMutability": "view",
      "type": "function"
    },
    {
      "inputs": [
        {
          "internalType": "uint256",
          "name": "",
          "type": "uint256"
        }
      ],
      "name": "proposals",
      "outputs": [
        {
          "internalType": "uint256",
          "name": "id",
          "type": "uint256"
        },
        {
          "internalType": "string",
          "name": "description",
          "type": "string"
        },
        {
          "internalType": "uint256",
          "name": "voteCount",
          "type": "uint256"
        },
        {
          "internalType": "uint256",
          "name": "deadline",
          "type": "uint256"
        },
        {
          "internalType": "bool",
          "name": "closed",
          "type": "bool"
        }
      ],
      "stateMutability": "view",
      "type": "function"
    },
    {
      "inputs": [],
      "name": "totalVotes",
      "outputs": [
        {
          "internalType": "uint256",
          "name": "",
          "type": "uint256"
        }
      ],
      "stateMutability": "view",
      "type": "function"
    },
    {
      "inputs": [
        {
          "internalType": "address",
          "name": "newImplementation",
          "type": "address"
        }
      ],
      "name": "upgradeTo",
      "outputs": [],
      "stateMutability": "nonpayable",
      "type": "function"
    },
    {
      "inputs": [],
      "name": "version",
      "outputs": [
        {
          "internalType": "uint256",
          "name": "",
          "type": "uint256"
        }
      ],
      "stateMutability": "view",
      "type": "function"
    },
    {
      "inputs": [
        {
          "internalType": "uint256",
          "name": "_proposalId",
          "type": "uint256"
        }
      ],
      "name": "vote",
      "outputs": [],
      "stateMutability": "nonpayable",
      "type": "function"
    },
    {
      "inputs": [
        {
          "internalType": "uint256",
          "name": "",
          "type": "uint256"
        },
        {
          "internalType": "address",
          "name": "",
          "type": "address"
        }
      ],
      "name": "voteHistory",
      "outputs": [
        {
          "internalType": "bool",
          "name": "",
          "type": "bool"
        }
      ],
      "stateMutability": "view",
      "type": "function"
    }
  ],
  "bytecode": "0x6080604052348015600e575f5ffd5b50610e808061001c5f395ff3fe608060405234801561000f575f5ffd5b5060043610610106575f3560e01c806354fd4d501161009e5780636e9960c31161006e5780636e9960c3146102345780638129fc1c1461025957806386b646f214610261578063aaf10f421461028e578063da35c6641461029f575f5ffd5b806354fd4d50146101fb5780635cd8a76b1461020457806362564c481461020c5780636e48a03514610221575f5ffd5b806335facf78116100d957806335facf781461016b5780633659cfe61461017e57806338d973c51461019157806342545825146101ce575f5ffd5b80630121b93f1461010a578063013cf08b1461011f5780630d15fd771461014c5780630d8e6e2c14610163575b5f5ffd5b61011d6101183660046109c6565b6102a8565b005b61013261012d3660046109c6565b610405565b604051610143959493929190610a0b565b60405180910390f35b61015560065481565b604051908152602001610143565b600754610155565b61011d610179366004610a56565b6104be565b61011d61018c366004610b26565b61059b565b6101be61019f366004610b46565b600560209081525f928352604080842090915290825290205460ff1681565b6040519015158152602001610143565b6101be6101dc366004610b70565b600160209081525f928352604080842090915290825290205460ff1681565b61015560075481565b61011d6106a2565b6102146106f2565b6040516101439190610b98565b61011d61022f3660046109c6565b610894565b6003546001600160a01b03165b6040516001600160a01b039091168152602001610143565b61011d610975565b61028161026f3660046109c6565b50604080515f81526020810190915290565b6040516101439190610c32565b6004546001600160a01b0316610241565b61015560025481565b5f818152602081905260409020600381015442106102fd5760405162461bcd60e51b815260206004820152600d60248201526c159bdd1a5b99c818db1bdcd959609a1b60448201526064015b60405180910390fd5b335f90815260016020908152604080832085845290915290205460ff16156103575760405162461bcd60e51b815260206004820152600d60248201526c105b1c9958591e481d9bdd1959609a1b60448201526064016102f4565b6001816002015f82825461036b9190610c91565b9091555050335f8181526001602081815260408084208785528252808420805460ff1990811685179091556005835281852095855294909152822080549093168117909255600680549091906103c2908490610c91565b909155505060408051338152602081018490527f4d99b957a2bc29a30ebd96a7be8e68fe50a3c701db28a91436490b7d53870ca491015b60405180910390a15050565b5f602081905290815260409020805460018201805491929161042690610caa565b80601f016020809104026020016040519081016040528092919081815260200182805461045290610caa565b801561049d5780601f106104745761010080835404028352916020019161049d565b820191905f5260205f20905b81548152906001019060200180831161048057829003601f168201915b50505050600283015460038401546004909401549293909290915060ff1685565b60028054905f6104cd83610cdc565b91905055506040518060a0016040528060025481526020018381526020015f815260200182426104fd9190610c91565b81525f60209182018190526002548152808252604090208251815590820151600182019061052b9082610d40565b506040820151600282810191909155606083015160038301556080909201516004909101805460ff1916911515919091179055547ff5dc0da9afa6d080780a49fd8c680f03d2ddf3c067cd6d0c85360c096644d2d3908361058c8442610c91565b6040516103f993929190610dfb565b6003546001600160a01b031633146105ff5760405162461bcd60e51b815260206004820152602160248201527f4f6e6c792061646d696e2063616e2063616c6c20746869732066756e6374696f6044820152603760f91b60648201526084016102f4565b6001600160a01b03811661064e5760405162461bcd60e51b815260206004820152601660248201527524b73b30b634b21034b6b83632b6b2b73a30ba34b7b760511b60448201526064016102f4565b600480546001600160a01b0319166001600160a01b0383169081179091556040519081527fbc7cd75a20ee27fd9adebab32041f755214dbc6bffa90cc0225b39da2e5c2d3b9060200160405180910390a150565b600754156106eb5760405162461bcd60e51b8152602060048201526016602482015275158c88185b1c9958591e481a5b9a5d1a585b1a5e995960521b60448201526064016102f4565b6002600755565b60605f60025467ffffffffffffffff81111561071057610710610a42565b60405190808252806020026020018201604052801561077157816020015b61075e6040518060a001604052805f8152602001606081526020015f81526020015f81526020015f151581525090565b81526020019060019003908161072e5790505b50905060015b600254811161088e575f8181526020818152604091829020825160a081019093528054835260018101805491928401916107b090610caa565b80601f01602080910402602001604051908101604052809291908181526020018280546107dc90610caa565b80156108275780601f106107fe57610100808354040283529160200191610827565b820191905f5260205f20905b81548152906001019060200180831161080a57829003601f168201915b5050509183525050600282015460208201526003820154604082015260049091015460ff16151560609091015282610860600184610e23565b8151811061087057610870610e36565b6020026020010181905250808061088690610cdc565b915050610777565b50919050565b5f81815260208190526040902060038101544210156108e15760405162461bcd60e51b8152602060048201526009602482015268546f6f206561726c7960b81b60448201526064016102f4565b600481015460ff16156109275760405162461bcd60e51b815260206004820152600e60248201526d105b1c9958591e4818db1bdcd95960921b60448201526064016102f4565b60048101805460ff1916600117905560028101546040517fbc54f85bee74832b80104d1b6d31c68eb8065057063a1d23f8ed7ce44a47f302916103f991859190918252602082015260400190565b6003546001600160a01b0316156109c45760405162461bcd60e51b8152602060048201526013602482015272105b1c9958591e481a5b9a5d1a585b1a5e9959606a1b60448201526064016102f4565b565b5f602082840312156109d6575f5ffd5b5035919050565b5f81518084528060208401602086015e5f602082860101526020601f19601f83011685010191505092915050565b85815260a060208201525f610a2360a08301876109dd565b6040830195909552506060810192909252151560809091015292915050565b634e487b7160e01b5f52604160045260245ffd5b5f5f60408385031215610a67575f5ffd5b823567ffffffffffffffff811115610a7d575f5ffd5b8301601f81018513610a8d575f5ffd5b803567ffffffffffffffff811115610aa757610aa7610a42565b604051601f8201601f19908116603f0116810167ffffffffffffffff81118282101715610ad657610ad6610a42565b604052818152828201602001871015610aed575f5ffd5b816020840160208301375f6020928201830152969401359450505050565b80356001600160a01b0381168114610b21575f5ffd5b919050565b5f60208284031215610b36575f5ffd5b610b3f82610b0b565b9392505050565b5f5f60408385031215610b57575f5ffd5b82359150610b6760208401610b0b565b90509250929050565b5f5f60408385031215610b81575f5ffd5b610b8a83610b0b565b946020939093013593505050565b5f602082016020835280845180835260408501915060408160051b8601019250602086015f5b82811015610c2657603f19878603018452815180518652602081015160a06020880152610bee60a08801826109dd565b604083810151908901526060808401519089015260809283015115159290970191909152506020938401939190910190600101610bbe565b50929695505050505050565b602080825282518282018190525f918401906040840190835b81811015610c725783516001600160a01b0316835260209384019390920191600101610c4b565b509095945050505050565b634e487b7160e01b5f52601160045260245ffd5b80820180821115610ca457610ca4610c7d565b92915050565b600181811c90821680610cbe57607f821691505b60208210810361088e57634e487b7160e01b5f52602260045260245ffd5b5f60018201610ced57610ced610c7d565b5060010190565b601f821115610d3b57805f5260205f20601f840160051c81016020851015610d195750805b601f840160051c820191505b81811015610d38575f8155600101610d25565b50505b505050565b815167ffffffffffffffff811115610d5a57610d5a610a42565b610d6e81610d688454610caa565b84610cf4565b6020601f821160018114610da0575f8315610d895750848201515b5f19600385901b1c1916600184901b178455610d38565b5f84815260208120601f198516915b82811015610dcf5787850151825560209485019460019092019101610daf565b5084821015610dec57868401515f19600387901b60f8161c191681555b50505050600190811b01905550565b838152606060208201525f610e1360608301856109dd565b9050826040830152949350505050565b81810381811115610ca457610ca4610c7d565b634e487b7160e01b5f52603260045260245ffdfea2646970667358221220aafdb36bd456aa706e09a62c7dff05440e882be6691abd29ccf2c370986a590364736f6c634300081c0033",
  "linkReferences": {},
  "deployedLinkReferences": {},
  "immutableReferences": {},
  "inputSourceName": "project/contracts/VotingV2.sol",
  "buildInfoId": "solc-0_8_28-8b8a0417b8c894766475463e363e79b5cd090c11"
}