{
  "_format": "hh3-artifact-1",
  "contractName": "Voting",
  "sourceName": "contracts/Voting.sol",
  "abi": [
    {
      "anonymous": false,
      "inputs": [
        {
          "indexed": false,
          "internalType": "uint256",
          "name": "id",
          "type": "uint256"
        },
        {
          "indexed": false,
          "internalType": "string",
          "name": "description",
          "type": "string"
        },
        {
          "indexed": false,
          "internalType": "uint256",
          "name": "deadline",
          "type": "uint256"
        }
      ],
      "name": "ProposalCreated",
      "type": "event"
    },
    {
      "anonymous": false,
      "inputs": [
        {
          "indexed": false,
          "internalType": "address",
          "name": "voter",
          "type": "address"
        },
        {
          "indexed": false,
          "internalType": "uint256",
          "name": "proposalId",
          "type": "uint256"
        }
      ],
      "name": "Voted",
      "type": "event"
    },
    {
      "inputs": [
        {
          "internalType": "uint256",
          "name": "_proposalId",
          "type": "uint256"
        }
      ],
      "name": "closeVote",
      "outputs": [],
      "stateMutability": "nonpayable",
      "type": "function"
    },
    {
      "inputs": [
        {
          "internalType": "string",
          "name": "_desc",
          "type": "string"
        },
        {
          "internalType": "uint256",
          "name": "_duration",
          "type": "uint256"
        }
      ],
      "name": "createProposal",
      "outputs": [],
      "stateMutability": "nonpayable",
      "type": "function"
    },
    {
      "inputs": [],
      "name": "getProposals",
      "outputs": [
        {
          "components": [
            {
              "internalType": "uint256",
              "name": "id",
              "type": "uint256"
            },
            {
              "internalType": "string",
              "name": "description",
              "type": "string"
            },
            {
              "internalType": "uint256",
              "name": "voteCount",
              "type": "uint256"
            },
            {
              "internalType": "uint256",
              "name": "deadline",
              "type": "uint256"
            },
            {
              "internalType": "bool",
              "name": "closed",
              "type": "bool"
            }
          ],
          "internalType": "struct Voting.Proposal[]",
          "name": "",
          "type": "tuple[]"
        }
      ],
      "stateMutability": "view",
      "type": "function"
    },
    {
      "inputs": [
        {
          "internalType": "address",
          "name": "",
          "type": "address"
        },
        {
          "internalType": "uint256",
          "name": "",
          "type": "uint256"
        }
      ],
      "name": "hasVoted",
      "outputs": [
        {
          "internalType": "bool",
          "name": "",
          "type": "bool"
        }
      ],
      "stateMutability": "view",
      "type": "function"
    },
    {
      "inputs": [],
      "name": "proposalCount",
      "outputs": [
        {
          "internalType": "uint256",
          "name": "",
          "type": "uint256"
        }
      ],
      "stateMutability": "view",
      "type": "function"
    },
    {
      "inputs": [
        {
          "internalType": "uint256",
          "name": "",
          "type": "uint256"
        }
      ],
      "name": "proposals",
      "outputs": [
        {
          "internalType": "uint256",
          "name": "id",
          "type": "uint256"
        },
        {
          "internalType": "string",
          "name": "description",
          "type": "string"
        },
        {
          "internalType": "uint256",
          "name": "voteCount",
          "type": "uint256"
        },
        {
          "internalType": "uint256",
          "name": "deadline",
          "type": "uint256"
        },
        {
          "internalType": "bool",
          "name": "closed",
          "type": "bool"
        }
      ],
      "stateMutability": "view",
      "type": "function"
    },
    {
      "inputs": [
        {
          "internalType": "uint256",
          "name": "_proposalId",
          "type": "uint256"
        }
      ],
      "name": "vote",
      "outputs": [],
      "stateMutability": "nonpayable",
      "type": "function"
    }
  ],
  "bytecode": "0x6080604052348015600e575f5ffd5b50610a248061001c5f395ff3fe608060405234801561000f575f5ffd5b506004361061007a575f3560e01c8063425458251161005857806342545825146100d357806362564c48146101105780636e48a03514610125578063da35c66414610138575f5ffd5b80630121b93f1461007e578063013cf08b1461009357806335facf78146100c0575b5f5ffd5b61009161008c36600461060d565b61014f565b005b6100a66100a136600461060d565b610277565b6040516100b7959493929190610652565b60405180910390f35b6100916100ce36600461069d565b610330565b6101006100e1366004610752565b600160209081525f928352604080842090915290825290205460ff1681565b60405190151581526020016100b7565b61011861040d565b6040516100b79190610787565b61009161013336600461060d565b6105af565b61014160025481565b6040519081526020016100b7565b5f818152602081905260409020600381015442106101a45760405162461bcd60e51b815260206004820152600d60248201526c159bdd1a5b99c818db1bdcd959609a1b60448201526064015b60405180910390fd5b335f90815260016020908152604080832085845290915290205460ff16156101fe5760405162461bcd60e51b815260206004820152600d60248201526c105b1c9958591e481d9bdd1959609a1b604482015260640161019b565b6001816002015f8282546102129190610835565b9091555050335f818152600160208181526040808420878552825292839020805460ff1916909217909155815192835282018490527f4d99b957a2bc29a30ebd96a7be8e68fe50a3c701db28a91436490b7d53870ca491015b60405180910390a15050565b5f60208190529081526040902080546001820180549192916102989061084e565b80601f01602080910402602001604051908101604052809291908181526020018280546102c49061084e565b801561030f5780601f106102e65761010080835404028352916020019161030f565b820191905f5260205f20905b8154815290600101906020018083116102f257829003601f168201915b50505050600283015460038401546004909401549293909290915060ff1685565b60028054905f61033f83610880565b91905055506040518060a0016040528060025481526020018381526020015f8152602001824261036f9190610835565b81525f60209182018190526002548152808252604090208251815590820151600182019061039d90826108e4565b506040820151600282810191909155606083015160038301556080909201516004909101805460ff1916911515919091179055547ff5dc0da9afa6d080780a49fd8c680f03d2ddf3c067cd6d0c85360c096644d2d390836103fe8442610835565b60405161026b9392919061099f565b60605f60025467ffffffffffffffff81111561042b5761042b610689565b60405190808252806020026020018201604052801561048c57816020015b6104796040518060a001604052805f8152602001606081526020015f81526020015f81526020015f151581525090565b8152602001906001900390816104495790505b50905060015b60025481116105a9575f8181526020818152604091829020825160a081019093528054835260018101805491928401916104cb9061084e565b80601f01602080910402602001604051908101604052809291908181526020018280546104f79061084e565b80156105425780601f1061051957610100808354040283529160200191610542565b820191905f5260205f20905b81548152906001019060200180831161052557829003601f168201915b5050509183525050600282015460208201526003820154604082015260049091015460ff1615156060909101528261057b6001846109c7565b8151811061058b5761058b6109da565b602002602001018190525080806105a190610880565b915050610492565b50919050565b5f81815260208190526040902060038101544210156105fc5760405162461bcd60e51b8152602060048201526009602482015268546f6f206561726c7960b81b604482015260640161019b565b600401805460ff1916600117905550565b5f6020828403121561061d575f5ffd5b5035919050565b5f81518084528060208401602086015e5f602082860101526020601f19601f83011685010191505092915050565b85815260a060208201525f61066a60a0830187610624565b6040830195909552506060810192909252151560809091015292915050565b634e487b7160e01b5f52604160045260245ffd5b5f5f604083850312156106ae575f5ffd5b823567ffffffffffffffff8111156106c4575f5ffd5b8301601f810185136106d4575f5ffd5b803567ffffffffffffffff8111156106ee576106ee610689565b604051601f8201601f19908116603f0116810167ffffffffffffffff8111828210171561071d5761071d610689565b604052818152828201602001871015610734575f5ffd5b816020840160208301375f6020928201830152969401359450505050565b5f5f60408385031215610763575f5ffd5b82356001600160a01b0381168114610779575f5ffd5b946020939093013593505050565b5f602082016020835280845180835260408501915060408160051b8601019250602086015f5b8281101561081557603f19878603018452815180518652602081015160a060208801526107dd60a0880182610624565b6040838101519089015260608084015190890152608092830151151592909701919091525060209384019391909101906001016107ad565b50929695505050505050565b634e487b7160e01b5f52601160045260245ffd5b8082018082111561084857610848610821565b92915050565b600181811c9082168061086257607f821691505b6020821081036105a957634e487b7160e01b5f52602260045260245ffd5b5f6001820161089157610891610821565b5060010190565b601f8211156108df57805f5260205f20601f840160051c810160208510156108bd5750805b601f840160051c820191505b818110156108dc575f81556001016108c9565b50505b505050565b815167ffffffffffffffff8111156108fe576108fe610689565b6109128161090c845461084e565b84610898565b6020601f821160018114610944575f831561092d5750848201515b5f19600385901b1c1916600184901b1784556108dc565b5f84815260208120601f198516915b828110156109735787850151825560209485019460019092019101610953565b508482101561099057868401515f19600387901b60f8161c191681555b50505050600190811b01905550565b838152606060208201525f6109b76060830185610624565b9050826040830152949350505050565b8181038181111561084857610848610821565b634e487b7160e01b5f52603260045260245ffdfea264697066735822122008b2dcecb568d78916421227c55e3700f3a15055fcb01f27b6ef7aadb534040364736f6c634300081c0033",
  "linkReferences": {},
  "deployedLinkReferences": {},
  "immutableReferences": {},
  "inputSourceName": "project/contracts/Voting.sol",
  "buildInfoId": "solc-0_8_28-f7c82da2725e031a44fe9085971b6f1055028e29"
}